:100000000C943E000C9453000C9453000C94530039
:100010000C9455000C9453000C9453000C94530012
:100020000C9453000C9453000C9453000C94530004
:100030000C9453000C9453000C9453000C945300F4
:100040000C9453000C9453000C9453000C945300E4
:100050000C9453000C9453000C9453000C945300D4
:100060000C9453000C9453000C9453000C945300C4
:100070000C9453000C9453000C94530011241FBE95
:10008000CFEFD0E1DEBFCDBF11E0A0E0B1E0E6E20E
:10009000F1E002C005900D92A230B107D9F70E949D
:1000A00078000C9491000C9400001F920F920FB6F0
:1000B0000F9211242F933F938F939F93EF93FF936E
:1000C000189B02C01092000188E893E128EC30E010
:1000D000F9013197F1F70197D9F7FF91EF919F91CE
:1000E0008F913F912F910F900FBE0F901F901895F9
:1000F00082E084B915B880916800816080936800BF
:1001000080916B00816080936B00789492E0809185
:1001100000018823E1F385B1892785B91092000198
:06012000F6CFF894FFCFBA
:020126000100D6
:00000001FF
